{
  "contractName": "BiffelContract",
  "abi": [
    {
      "inputs": [],
      "payable": false,
      "stateMutability": "nonpayable",
      "type": "constructor"
    },
    {
      "anonymous": false,
      "inputs": [
        {
          "indexed": false,
          "name": "biffelID",
          "type": "uint256"
        },
        {
          "indexed": false,
          "name": "seller",
          "type": "address"
        },
        {
          "indexed": false,
          "name": "slotCount",
          "type": "uint32"
        },
        {
          "indexed": false,
          "name": "slotPrice",
          "type": "uint256"
        },
        {
          "indexed": false,
          "name": "bounty",
          "type": "uint256"
        }
      ],
      "name": "biffelCreated",
      "type": "event"
    },
    {
      "anonymous": false,
      "inputs": [
        {
          "indexed": false,
          "name": "biffelID",
          "type": "uint256"
        },
        {
          "indexed": false,
          "name": "seller",
          "type": "address"
        },
        {
          "indexed": false,
          "name": "buyers",
          "type": "address[]"
        },
        {
          "indexed": false,
          "name": "slotPrice",
          "type": "uint256"
        },
        {
          "indexed": false,
          "name": "bounty",
          "type": "uint256"
        }
      ],
      "name": "slotBought",
      "type": "event"
    },
    {
      "anonymous": false,
      "inputs": [
        {
          "indexed": false,
          "name": "biffelID",
          "type": "uint256"
        },
        {
          "indexed": false,
          "name": "buyers",
          "type": "address[]"
        }
      ],
      "name": "biffelFull",
      "type": "event"
    },
    {
      "anonymous": false,
      "inputs": [
        {
          "indexed": false,
          "name": "biffelID",
          "type": "uint256"
        },
        {
          "indexed": false,
          "name": "winner",
          "type": "address"
        }
      ],
      "name": "biffelDecided",
      "type": "event"
    },
    {
      "constant": false,
      "inputs": [
        {
          "name": "_slotCount",
          "type": "uint32"
        },
        {
          "name": "_slotPrice",
          "type": "uint256"
        },
        {
          "name": "_bounty",
          "type": "uint256"
        }
      ],
      "name": "createBiffel",
      "outputs": [
        {
          "name": "",
          "type": "uint256"
        }
      ],
      "payable": false,
      "stateMutability": "nonpayable",
      "type": "function"
    },
    {
      "constant": false,
      "inputs": [
        {
          "name": "_biffelID",
          "type": "uint256"
        }
      ],
      "name": "buySlot",
      "outputs": [
        {
          "name": "success",
          "type": "bool"
        }
      ],
      "payable": true,
      "stateMutability": "payable",
      "type": "function"
    },
    {
      "constant": false,
      "inputs": [
        {
          "name": "_biffelID",
          "type": "uint256"
        }
      ],
      "name": "startBiffel",
      "outputs": [
        {
          "name": "winner",
          "type": "address"
        }
      ],
      "payable": true,
      "stateMutability": "payable",
      "type": "function"
    },
    {
      "constant": false,
      "inputs": [
        {
          "name": "_biffelID",
          "type": "uint256"
        }
      ],
      "name": "confirmShipment",
      "outputs": [
        {
          "name": "success",
          "type": "bool"
        }
      ],
      "payable": false,
      "stateMutability": "nonpayable",
      "type": "function"
    },
    {
      "constant": false,
      "inputs": [
        {
          "name": "_biffelID",
          "type": "uint256"
        }
      ],
      "name": "withdrawSlot",
      "outputs": [
        {
          "name": "success",
          "type": "bool"
        }
      ],
      "payable": false,
      "stateMutability": "nonpayable",
      "type": "function"
    },
    {
      "constant": true,
      "inputs": [],
      "name": "getBiffelCount",
      "outputs": [
        {
          "name": "",
          "type": "uint256"
        }
      ],
      "payable": false,
      "stateMutability": "view",
      "type": "function"
    },
    {
      "constant": true,
      "inputs": [
        {
          "name": "_biffelID",
          "type": "uint256"
        }
      ],
      "name": "getBiffelSeller",
      "outputs": [
        {
          "name": "seller",
          "type": "address"
        }
      ],
      "payable": false,
      "stateMutability": "view",
      "type": "function"
    },
    {
      "constant": true,
      "inputs": [
        {
          "name": "_biffelID",
          "type": "uint256"
        }
      ],
      "name": "getBiffelBuyers",
      "outputs": [
        {
          "name": "buyers",
          "type": "address[]"
        }
      ],
      "payable": false,
      "stateMutability": "view",
      "type": "function"
    },
    {
      "constant": true,
      "inputs": [
        {
          "name": "_biffelID",
          "type": "uint256"
        }
      ],
      "name": "getBiffelBuyerLength",
      "outputs": [
        {
          "name": "buyerLength",
          "type": "uint256"
        }
      ],
      "payable": false,
      "stateMutability": "view",
      "type": "function"
    },
    {
      "constant": true,
      "inputs": [
        {
          "name": "_biffelID",
          "type": "uint256"
        }
      ],
      "name": "getBiffelSlotCount",
      "outputs": [
        {
          "name": "slotCount",
          "type": "uint32"
        }
      ],
      "payable": false,
      "stateMutability": "view",
      "type": "function"
    },
    {
      "constant": true,
      "inputs": [
        {
          "name": "_biffelID",
          "type": "uint256"
        }
      ],
      "name": "getBiffelSlotPrice",
      "outputs": [
        {
          "name": "slotPrice",
          "type": "uint256"
        }
      ],
      "payable": false,
      "stateMutability": "view",
      "type": "function"
    },
    {
      "constant": true,
      "inputs": [
        {
          "name": "_biffelID",
          "type": "uint256"
        }
      ],
      "name": "getBiffelBalance",
      "outputs": [
        {
          "name": "balance",
          "type": "uint256"
        }
      ],
      "payable": false,
      "stateMutability": "view",
      "type": "function"
    },
    {
      "constant": true,
      "inputs": [
        {
          "name": "_biffelID",
          "type": "uint256"
        }
      ],
      "name": "getBiffelBounty",
      "outputs": [
        {
          "name": "bounty",
          "type": "uint256"
        }
      ],
      "payable": false,
      "stateMutability": "view",
      "type": "function"
    },
    {
      "constant": true,
      "inputs": [
        {
          "name": "_biffelID",
          "type": "uint256"
        }
      ],
      "name": "getBiffelStartBlock",
      "outputs": [
        {
          "name": "startBlock",
          "type": "uint256"
        }
      ],
      "payable": false,
      "stateMutability": "view",
      "type": "function"
    },
    {
      "constant": true,
      "inputs": [
        {
          "name": "_biffelID",
          "type": "uint256"
        }
      ],
      "name": "getBiffelBountyPaid",
      "outputs": [
        {
          "name": "bountyPaid",
          "type": "bool"
        }
      ],
      "payable": false,
      "stateMutability": "view",
      "type": "function"
    },
    {
      "constant": true,
      "inputs": [
        {
          "name": "_biffelID",
          "type": "uint256"
        }
      ],
      "name": "getBiffelIsActive",
      "outputs": [
        {
          "name": "isActive",
          "type": "bool"
        }
      ],
      "payable": false,
      "stateMutability": "view",
      "type": "function"
    },
    {
      "constant": false,
      "inputs": [
        {
          "name": "person",
          "type": "address"
        },
        {
          "name": "upvote",
          "type": "bool"
        }
      ],
      "name": "rate",
      "outputs": [],
      "payable": false,
      "stateMutability": "nonpayable",
      "type": "function"
    },
    {
      "constant": true,
      "inputs": [
        {
          "name": "person",
          "type": "address"
        }
      ],
      "name": "getRating",
      "outputs": [
        {
          "name": "upvotes",
          "type": "uint256"
        },
        {
          "name": "downvotes",
          "type": "uint256"
        }
      ],
      "payable": false,
      "stateMutability": "view",
      "type": "function"
    }
  ],
  "bytecode": "0x608060405234801561001057600080fd5b50336000806101000a81548173ffffffffffffffffffffffffffffffffffffffff021916908373ffffffffffffffffffffffffffffffffffffffff1602179055506000600381905550611916806100686000396000f3006080604052600436106100fc576000357c0100000000000000000000000000000000000000000000000000000000900463ffffffff16806306ffc25f14610101578063082db5ee1461014257806310cbbec61461018757806312102797146101e7578063548b630814610236578063605c7095146102b85780636500186b14610325578063733849c21461036657806376fb7543146103a757806380fc9c0e146103ec57806384efc1331461044a5780638f273cb91461048b57806399cf54d6146104cc578063ab2874cb14610527578063c0b6862a1461055f578063c30da3a3146105a4578063c6dc44e9146105cf578063e0cb8e5f1461061c575b600080fd5b34801561010d57600080fd5b5061012c60048036038101908080359060200190929190505050610661565b6040518082815260200191505060405180910390f35b34801561014e57600080fd5b5061016d60048036038101908080359060200190929190505050610681565b604051808215151515815260200191505060405180910390f35b6101a5600480360381019080803590602001909291905050506106ae565b604051808273ffffffffffffffffffffffffffffffffffffffff1673ffffffffffffffffffffffffffffffffffffffff16815260200191505060405180910390f35b3480156101f357600080fd5b50610234600480360381019080803573ffffffffffffffffffffffffffffffffffffffff169060200190929190803515159060200190929190505050610962565b005b34801561024257600080fd5b5061026160048036038101908080359060200190929190505050610a14565b6040518080602001828103825283818151815260200191508051906020019060200280838360005b838110156102a4578082015181840152602081019050610289565b505050509050019250505060405180910390f35b3480156102c457600080fd5b506102e360048036038101908080359060200190929190505050610ab8565b604051808273ffffffffffffffffffffffffffffffffffffffff1673ffffffffffffffffffffffffffffffffffffffff16815260200191505060405180910390f35b34801561033157600080fd5b5061035060048036038101908080359060200190929190505050610af8565b6040518082815260200191505060405180910390f35b34801561037257600080fd5b5061039160048036038101908080359060200190929190505050610b18565b6040518082815260200191505060405180910390f35b3480156103b357600080fd5b506103d260048036038101908080359060200190929190505050610b38565b604051808215151515815260200191505060405180910390f35b3480156103f857600080fd5b5061042d600480360381019080803573ffffffffffffffffffffffffffffffffffffffff169060200190929190505050610b65565b604051808381526020018281526020019250505060405180910390f35b34801561045657600080fd5b5061047560048036038101908080359060200190929190505050610bf7565b6040518082815260200191505060405180910390f35b34801561049757600080fd5b506104b660048036038101908080359060200190929190505050610c17565b6040518082815260200191505060405180910390f35b3480156104d857600080fd5b50610511600480360381019080803563ffffffff1690602001909291908035906020019092919080359060200190929190505050610c3a565b6040518082815260200191505060405180910390f35b61054560048036038101908080359060200190929190505050610f0e565b604051808215151515815260200191505060405180910390f35b34801561056b57600080fd5b5061058a6004803603810190808035906020019092919050505061138b565b604051808215151515815260200191505060405180910390f35b3480156105b057600080fd5b506105b961160f565b6040518082815260200191505060405180910390f35b3480156105db57600080fd5b506105fa60048036038101908080359060200190929190505050611619565b604051808263ffffffff1663ffffffff16815260200191505060405180910390f35b34801561062857600080fd5b5061064760048036038101908080359060200190929190505050611649565b604051808215151515815260200191505060405180910390f35b600060016000838152602001908152602001600020600501549050919050565b60006001600083815260200190815260200160002060080160159054906101000a900460ff169050919050565b6000806000806000804394506001806000898152602001908152602001600020600701540185101515156106e157600080fd5b600115156001600089815260200190815260200160002060080160159054906101000a900460ff16151514151561071757600080fd5b844060405180826000191660001916815260200191505060405180910390209350836001900492506001600088815260200190815260200160002060030160009054906101000a900463ffffffff1663ffffffff168381151561077657fe5b069150600160008881526020019081526020016000206002018281548110151561079c57fe5b9060005260206000200160009054906101000a900473ffffffffffffffffffffffffffffffffffffffff16955060006001600089815260200190815260200160002060080160156101000a81548160ff021916908315150217905550600015156001600089815260200190815260200160002060080160149054906101000a900460ff16151514151561082e57600080fd5b6001600088815260200190815260200160002060030160009054906101000a900463ffffffff1663ffffffff1660016000898152602001908152602001600020600601540290503373ffffffffffffffffffffffffffffffffffffffff166108fc829081150290604051600060405180830381858888f193505050501580156108bb573d6000803e3d6000fd5b50600180600089815260200190815260200160002060080160146101000a81548160ff0219169083151502179055507f0f4817d29d6f74e68387d7318be018d61a0c984f9c8c5effdb4bdb11896d6fe58787604051808381526020018273ffffffffffffffffffffffffffffffffffffffff1673ffffffffffffffffffffffffffffffffffffffff1681526020019250505060405180910390a18595505050505050919050565b80156109be576001600260008473ffffffffffffffffffffffffffffffffffffffff1673ffffffffffffffffffffffffffffffffffffffff16815260200190815260200160002060000160008282540192505081905550610a10565b6001600260008473ffffffffffffffffffffffffffffffffffffffff1673ffffffffffffffffffffffffffffffffffffffff168152602001908152602001600020600101600082825401925050819055505b5050565b606060016000838152602001908152602001600020600201805480602002602001604051908101604052809291908181526020018280548015610aac57602002820191906000526020600020905b8160009054906101000a900473ffffffffffffffffffffffffffffffffffffffff1673ffffffffffffffffffffffffffffffffffffffff1681526020019060010190808311610a62575b50505050509050919050565b60006001600083815260200190815260200160002060010160009054906101000a900473ffffffffffffffffffffffffffffffffffffffff169050919050565b600060016000838152602001908152602001600020600601549050919050565b600060016000838152602001908152602001600020600401549050919050565b60006001600083815260200190815260200160002060080160149054906101000a900460ff169050919050565b600080600260008473ffffffffffffffffffffffffffffffffffffffff1673ffffffffffffffffffffffffffffffffffffffff16815260200190815260200160002060000154600260008573ffffffffffffffffffffffffffffffffffffffff1673ffffffffffffffffffffffffffffffffffffffff1681526020019081526020016000206001015491509150915091565b600060016000838152602001908152602001600020600701549050919050565b600060016000838152602001908152602001600020600201805490509050919050565b600080610c4561178c565b60035491506001600360008282540192505081905550610160604051908101604052808381526020013373ffffffffffffffffffffffffffffffffffffffff1681526020016000604051908082528060200260200182016040528015610cba5781602001602082028038833980820191505090505b5081526020018763ffffffff1681526020018681526020016000815260200185815260200160008152602001600073ffffffffffffffffffffffffffffffffffffffff16815260200160001515815260200160011515815250905080600160008481526020019081526020016000206000820151816000015560208201518160010160006101000a81548173ffffffffffffffffffffffffffffffffffffffff021916908373ffffffffffffffffffffffffffffffffffffffff1602179055506040820151816002019080519060200190610d9692919061181d565b5060608201518160030160006101000a81548163ffffffff021916908363ffffffff1602179055506080820151816004015560a0820151816005015560c0820151816006015560e082015181600701556101008201518160080160006101000a81548173ffffffffffffffffffffffffffffffffffffffff021916908373ffffffffffffffffffffffffffffffffffffffff1602179055506101208201518160080160146101000a81548160ff0219169083151502179055506101408201518160080160156101000a81548160ff0219169083151502179055509050507f87251543b7a5d03fde679777a3abe151a5e16a363e47cedb53572f0b28ad3e118233888888604051808681526020018573ffffffffffffffffffffffffffffffffffffffff1673ffffffffffffffffffffffffffffffffffffffff1681526020018463ffffffff1663ffffffff1681526020018381526020018281526020019550505050505060405180910390a181925050509392505050565b6000806001600084815260200190815260200160002060010160009054906101000a900473ffffffffffffffffffffffffffffffffffffffff1673ffffffffffffffffffffffffffffffffffffffff163373ffffffffffffffffffffffffffffffffffffffff1614151515610f8257600080fd5b6001600084815260200190815260200160002060080160159054906101000a900460ff161515610fb157600080fd5b6001600084815260200190815260200160002060030160009054906101000a900463ffffffff1663ffffffff16600160008581526020019081526020016000206002018054905010151561100457600080fd5b6001600084815260200190815260200160002060060154600160008581526020019081526020016000206004015401341015151561104157600080fd5b600160008481526020019081526020016000206002013390806001815401808255809150509060018203906000526020600020016000909192909190916101000a81548173ffffffffffffffffffffffffffffffffffffffff021916908373ffffffffffffffffffffffffffffffffffffffff16021790555050600160008481526020019081526020016000206002018054905090503460016000858152602001908152602001600020600501600082825401925050819055507f1510fbcb7850f7432d9f9afb52c632f4de2d4f09248ed6525fd68361d828b6af836001600086815260200190815260200160002060010160009054906101000a900473ffffffffffffffffffffffffffffffffffffffff166001600087815260200190815260200160002060020160016000888152602001908152602001600020600401546001600089815260200190815260200160002060060154604051808681526020018573ffffffffffffffffffffffffffffffffffffffff1673ffffffffffffffffffffffffffffffffffffffff16815260200180602001848152602001838152602001828103825285818154815260200191508054801561125757602002820191906000526020600020905b8160009054906101000a900473ffffffffffffffffffffffffffffffffffffffff1673ffffffffffffffffffffffffffffffffffffffff168152602001906001019080831161120d575b5050965050505050505060405180910390a16001600084815260200190815260200160002060030160009054906101000a900463ffffffff1663ffffffff16811415611381574360016000858152602001908152602001600020600701819055507f5565462e8db5d093decab2c1ca2e377dc1a64bee30552d594b159b84e1f39d1083600160008681526020019081526020016000206002016040518083815260200180602001828103825283818154815260200191508054801561137157602002820191906000526020600020905b8160009054906101000a900473ffffffffffffffffffffffffffffffffffffffff1673ffffffffffffffffffffffffffffffffffffffff1681526020019060010190808311611327575b5050935050505060405180910390a15b6001915050919050565b60008060006001600085815260200190815260200160002060080160159054906101000a900460ff1615156113bf57600080fd5b60016000858152602001908152602001600020600201805490509150600090505b81811015611603573373ffffffffffffffffffffffffffffffffffffffff16600160008681526020019081526020016000206002018281548110151561142257fe5b9060005260206000200160009054906101000a900473ffffffffffffffffffffffffffffffffffffffff1673ffffffffffffffffffffffffffffffffffffffff1614156115f657600160008581526020019081526020016000206002016001830381548110151561148f57fe5b9060005260206000200160009054906101000a900473ffffffffffffffffffffffffffffffffffffffff1660016000868152602001908152602001600020600201828154811015156114dd57fe5b9060005260206000200160006101000a81548173ffffffffffffffffffffffffffffffffffffffff021916908373ffffffffffffffffffffffffffffffffffffffff160217905550600160008581526020019081526020016000206002016001830381548110151561154b57fe5b9060005260206000200160006101000a81549073ffffffffffffffffffffffffffffffffffffffff02191690553373ffffffffffffffffffffffffffffffffffffffff166108fc60016000878152602001908152602001600020600601546001600088815260200190815260200160002060040154019081150290604051600060405180830381858888f193505050501580156115ec573d6000803e3d6000fd5b5060019250611608565b80806001019150506113e0565b600092505b5050919050565b6000600354905090565b60006001600083815260200190815260200160002060030160009054906101000a900463ffffffff169050919050565b60008015156001600084815260200190815260200160002060080160159054906101000a900460ff16151514151561168057600080fd5b6001600083815260200190815260200160002060080160009054906101000a900473ffffffffffffffffffffffffffffffffffffffff1673ffffffffffffffffffffffffffffffffffffffff163373ffffffffffffffffffffffffffffffffffffffff161415156116f057600080fd5b6001600083815260200190815260200160002060010160009054906101000a900473ffffffffffffffffffffffffffffffffffffffff1673ffffffffffffffffffffffffffffffffffffffff166108fc60016000858152602001908152602001600020600501549081150290604051600060405180830381858888f19350505050158015611782573d6000803e3d6000fd5b5060019050919050565b6101606040519081016040528060008152602001600073ffffffffffffffffffffffffffffffffffffffff16815260200160608152602001600063ffffffff16815260200160008152602001600081526020016000815260200160008152602001600073ffffffffffffffffffffffffffffffffffffffff1681526020016000151581526020016000151581525090565b828054828255906000526020600020908101928215611896579160200282015b828111156118955782518260006101000a81548173ffffffffffffffffffffffffffffffffffffffff021916908373ffffffffffffffffffffffffffffffffffffffff1602179055509160200191906001019061183d565b5b5090506118a391906118a7565b5090565b6118e791905b808211156118e357600081816101000a81549073ffffffffffffffffffffffffffffffffffffffff0219169055506001016118ad565b5090565b905600a165627a7a72305820ab108e185018f28982f3888872ba95dccddc46b81a525fbcef148d8e088d548f0029",
  "source": "pragma solidity ^0.4.21;\n\ncontract BiffelContract {\n\n    address contractCreator;\n    \n    struct Biffel {\n        uint biffelID;\n        address seller;\n        address[] buyers;\n        uint32 slotCount;\n        uint256 slotPrice;\n        uint256 balance;\n        uint256 bounty;\n        uint startBlock;\n        address winner;\n        \n        bool bountyPaid;\n        \n        bool isActive;\n    }\n\n    struct Votes {\n        uint upvotes;\n        uint downvotes;\n    }\n\n    event biffelCreated(\n        uint biffelID,\n        address seller,\n        uint32 slotCount,\n        uint256 slotPrice,\n        uint256 bounty\n    );\n    \n    event slotBought(\n        uint biffelID,\n        address seller,\n        address[] buyers,\n        uint256 slotPrice,\n        uint256 bounty\n    );\n    \n    event biffelFull(\n        uint biffelID,\n        address[] buyers\n    );\n    \n    event biffelDecided(\n        uint biffelID,\n        address winner\n    );\n\n    mapping (uint => Biffel) biffels;\n    mapping (address => Votes) ratings;\n    uint256 biffelCount;\n    \n    //assuming average finality is around 6 or 7 this number should be 10. height of 1 is better for testing\n    uint constant clearingHeight = 1;\n\n    constructor() public {\n        contractCreator = msg.sender;\n        biffelCount = 0;\n    }\n\n    function createBiffel(uint32 _slotCount, uint256 _slotPrice, uint256 _bounty) public returns (uint) {\n        uint _biffelID = biffelCount;\n\n        biffelCount += 1;\n        \n        Biffel memory biffel = Biffel(_biffelID,msg.sender,new address[](0),_slotCount,_slotPrice,0 wei,_bounty,0,0,false, true);\n        \n        biffels[_biffelID] = biffel;\n\n        emit biffelCreated(_biffelID,msg.sender,_slotCount,_slotPrice,_bounty);\n\n        return _biffelID;\n    }\n\n    function buySlot(uint _biffelID) public payable returns (bool success) {\n        \n        require(msg.sender != biffels[_biffelID].seller);\n        require(biffels[_biffelID].isActive);\n        require(biffels[_biffelID].buyers.length < biffels[_biffelID].slotCount);\n        require(msg.value >= biffels[_biffelID].slotPrice + biffels[_biffelID].bounty);\n\n        biffels[_biffelID].buyers.push(msg.sender);\n        uint buyerCount = biffels[_biffelID].buyers.length;\n\n        biffels[_biffelID].balance += msg.value;\n        \n        emit slotBought(_biffelID,biffels[_biffelID].seller,biffels[_biffelID].buyers,biffels[_biffelID].slotPrice,biffels[_biffelID].bounty);\n\n        if (buyerCount == biffels[_biffelID].slotCount) {\n            biffels[_biffelID].startBlock = block.number;\n            emit biffelFull(_biffelID,biffels[_biffelID].buyers);\n        }\n\n        return true;\n    }\n\n    function startBiffel(uint _biffelID) public payable returns (address winner){\n        uint blockNumber = block.number;\n        \n        //check if we have reached average finality\n        require(blockNumber >= biffels[_biffelID].startBlock + clearingHeight);\n        \n        require(biffels[_biffelID].isActive == true);\n        \n        \n        bytes32 hash = keccak256(block.blockhash(blockNumber));\n        uint intHash = uint(hash);\n        uint randInt = intHash % biffels[_biffelID].slotCount;\n        winner = biffels[_biffelID].buyers[randInt];\n        biffels[_biffelID].isActive = false;\n        \n        require(biffels[_biffelID].bountyPaid == false);\n        uint256 totalBounty = biffels[_biffelID].bounty * biffels[_biffelID].slotCount;\n        msg.sender.transfer(totalBounty);\n        biffels[_biffelID].bountyPaid = true;\n        \n        emit biffelDecided(_biffelID,winner);\n        \n        return winner;\n\n\n    }\n    \n    function confirmShipment(uint _biffelID) public returns (bool success) {\n        require(biffels[_biffelID].isActive == false);\n        require(msg.sender == biffels[_biffelID].winner);\n        biffels[_biffelID].seller.transfer(biffels[_biffelID].balance);\n        return true;\n    }\n    \n    function withdrawSlot(uint _biffelID) public returns (bool success) {\n        \n        require(biffels[_biffelID].isActive);\n        uint buyerLength = biffels[_biffelID].buyers.length;\n        for(uint i = 0; i < buyerLength;i++){\n           if(biffels[_biffelID].buyers[i] == msg.sender){\n               \n               biffels[_biffelID].buyers[i] = biffels[_biffelID].buyers[buyerLength - 1];\n               \n               delete biffels[_biffelID].buyers[buyerLength - 1];\n               msg.sender.transfer(biffels[_biffelID].slotPrice + biffels[_biffelID].bounty);\n               return true;\n           }\n        }\n        \n        return false;\n    }\n    \n    //return a count of the biffels\n    function getBiffelCount() public view returns (uint256){\n        return biffelCount;\n    }\n    \n    //public getters for Biffel struct variables\n    //requires biffelIDs\n    \n    function getBiffelSeller(uint256 _biffelID) public view returns (address seller){\n        return biffels[_biffelID].seller;\n    }\n    \n    function getBiffelBuyers(uint256 _biffelID) public view returns (address[] buyers){\n        return biffels[_biffelID].buyers;\n    }\n    \n    function getBiffelBuyerLength(uint256 _biffelID) public view returns (uint buyerLength){\n        return biffels[_biffelID].buyers.length;\n    }\n    \n    function getBiffelSlotCount(uint256 _biffelID) public view returns (uint32 slotCount){\n        return biffels[_biffelID].slotCount;\n    }\n    \n    function getBiffelSlotPrice(uint256 _biffelID) public view returns (uint256 slotPrice){\n        return biffels[_biffelID].slotPrice;\n    }\n    \n    function getBiffelBalance(uint256 _biffelID) public view returns (uint256 balance){\n        return biffels[_biffelID].balance;\n    }\n    \n    function getBiffelBounty(uint256 _biffelID) public view returns (uint256 bounty){\n        return biffels[_biffelID].bounty;\n    }\n    \n    function getBiffelStartBlock(uint256 _biffelID) public view returns (uint startBlock){\n        return biffels[_biffelID].startBlock;\n    }\n    \n    function getBiffelBountyPaid(uint256 _biffelID) public view returns (bool bountyPaid){\n        return biffels[_biffelID].bountyPaid;\n    }\n    \n    function getBiffelIsActive(uint256 _biffelID) public view returns (bool isActive){\n        return biffels[_biffelID].isActive;\n    }\n    \n    // ratings\n    function rate(address person, bool upvote) {\n        if (upvote) {\n            ratings[person].upvotes += 1;\n        } else {\n            ratings[person].downvotes += 1;\n        }\n    }\n\n    function getRating(address person) public view returns (uint upvotes, uint downvotes){\n        return (ratings[person].upvotes, ratings[person].downvotes);\n    }\n\n}",
  "sourcePath": "/Users/miguelayala/Desktop/Work/spr18/cs359b/cs359b-biffel-1/biffel/contracts/Biffel.sol",
  "compiler": {
    "name": "solc",
    "version": "0.4.23+commit.124ca40d.Emscripten.clang"
  },
  "schemaVersion": "2.0.0",
  "updatedAt": "2018-06-01T06:25:29.585Z"
}