{
  "contractName": "Biffel",
  "abi": [
    {
      "inputs": [],
      "payable": false,
      "stateMutability": "nonpayable",
      "type": "constructor"
    },
    {
      "constant": false,
      "inputs": [
        {
          "name": "_slotCount",
          "type": "uint32"
        },
        {
          "name": "_slotPrice",
          "type": "uint256"
        }
      ],
      "name": "createWaffle",
      "outputs": [
        {
          "name": "",
          "type": "uint256"
        }
      ],
      "payable": false,
      "stateMutability": "nonpayable",
      "type": "function"
    },
    {
      "constant": false,
      "inputs": [
        {
          "name": "_waffleID",
          "type": "uint256"
        }
      ],
      "name": "addBuyer",
      "outputs": [
        {
          "name": "success",
          "type": "bool"
        }
      ],
      "payable": true,
      "stateMutability": "payable",
      "type": "function"
    },
    {
      "constant": false,
      "inputs": [
        {
          "name": "_waffleID",
          "type": "uint256"
        }
      ],
      "name": "removeWaffle",
      "outputs": [
        {
          "name": "success",
          "type": "bool"
        }
      ],
      "payable": false,
      "stateMutability": "nonpayable",
      "type": "function"
    },
    {
      "constant": false,
      "inputs": [
        {
          "name": "_waffleID",
          "type": "uint256"
        }
      ],
      "name": "startWaffle",
      "outputs": [],
      "payable": false,
      "stateMutability": "nonpayable",
      "type": "function"
    }
  ],
  "bytecode": "0x608060405234801561001057600080fd5b50336000806101000a81548173ffffffffffffffffffffffffffffffffffffffff021916908373ffffffffffffffffffffffffffffffffffffffff1602179055506107b7806100606000396000f300608060405260043610610062576000357c0100000000000000000000000000000000000000000000000000000000900463ffffffff1680637ddd8ce214610067578063c5639788146100ac578063ced565b6146100fd578063f07e059e14610135575b600080fd5b34801561007357600080fd5b5061009260048036038101908080359060200190929190505050610162565b604051808215151515815260200191505060405180910390f35b3480156100b857600080fd5b506100e7600480360381019080803563ffffffff1690602001909291908035906020019092919050505061022e565b6040518082815260200191505060405180910390f35b61011b600480360381019080803590602001909291905050506103b8565b604051808215151515815260200191505060405180910390f35b34801561014157600080fd5b50610160600480360381019080803590602001909291905050506104f2565b005b6000806001600084815260200190815260200160002090508060060160009054906101000a900460ff16151561019757600080fd5b8060010160009054906101000a900473ffffffffffffffffffffffffffffffffffffffff1673ffffffffffffffffffffffffffffffffffffffff163373ffffffffffffffffffffffffffffffffffffffff161415156101f557600080fd5b60006001600085815260200190815260200160002060060160006101000a81548160ff0219169083151502179055506001915050919050565b600080606061023b610662565b4392508563ffffffff166040519080825280602002602001820160405280156102735781602001602082028038833980820191505090505b50915060e0604051908101604052808481526020013373ffffffffffffffffffffffffffffffffffffffff1681526020018381526020018763ffffffff1681526020018681526020016000815260200160011515815250905080600160008581526020019081526020016000206000820151816000015560208201518160010160006101000a81548173ffffffffffffffffffffffffffffffffffffffff021916908373ffffffffffffffffffffffffffffffffffffffff160217905550604082015181600201908051906020019061034d9291906106be565b5060608201518160030160006101000a81548163ffffffff021916908363ffffffff1602179055506080820151816004015560a0820151816005015560c08201518160060160006101000a81548160ff02191690831515021790555090505082935050505092915050565b60008060006001600085815260200190815260200160002091508160060160009054906101000a900460ff1615156103ef57600080fd5b8160030160009054906101000a900463ffffffff1663ffffffff16826002018054905010151561041e57600080fd5b8160040154341015151561043157600080fd5b816002013390806001815401808255809150509060018203906000526020600020016000909192909190916101000a81548173ffffffffffffffffffffffffffffffffffffffff021916908373ffffffffffffffffffffffffffffffffffffffff16021790555050816002018054905090506001810190503482600501600082825401925050819055508160030160009054906101000a900463ffffffff1663ffffffff168114156104e7576104e6846104f2565b5b600192505050919050565b600080600080600080600160008881526020019081526020016000209550439450846040518082815260200191505060405180910390209350836001900492506001600088815260200190815260200160002060030160009054906101000a900463ffffffff1663ffffffff168381151561056957fe5b069150600160008881526020019081526020016000206002018281548110151561058f57fe5b9060005260206000200160009054906101000a900473ffffffffffffffffffffffffffffffffffffffff1690506105c5876105ce565b50505050505050565b60006001600083815260200190815260200160002090508060010160009054906101000a900473ffffffffffffffffffffffffffffffffffffffff1673ffffffffffffffffffffffffffffffffffffffff166108fc82600501549081150290604051600060405180830381858888f19350505050158015610653573d6000803e3d6000fd5b5061065d82610162565b505050565b60e06040519081016040528060008152602001600073ffffffffffffffffffffffffffffffffffffffff16815260200160608152602001600063ffffffff16815260200160008152602001600081526020016000151581525090565b828054828255906000526020600020908101928215610737579160200282015b828111156107365782518260006101000a81548173ffffffffffffffffffffffffffffffffffffffff021916908373ffffffffffffffffffffffffffffffffffffffff160217905550916020019190600101906106de565b5b5090506107449190610748565b5090565b61078891905b8082111561078457600081816101000a81549073ffffffffffffffffffffffffffffffffffffffff02191690555060010161074e565b5090565b905600a165627a7a7230582076973d3591a748432dcc1c1d8c3045aca1fae021cdab523e16cec984e4167fa30029",
  "source": "pragma solidity ^0.4.21;\n\ncontract Biffel {\n\n    address contractCreator;\n    \n    struct Waffle {\n        uint waffleID;\n        address seller;\n        address[] buyers;\n        uint32 slotCount;\n        uint256 slotPrice;\n        uint256 balance;\n        \n        bool isValue;\n    }\n\n    mapping (uint => Waffle) waffles;\n    uint counter;\n\n    constructor() public {\n        contractCreator = msg.sender;\n    }\n\n    function createWaffle(uint32 _slotCount, uint256 _slotPrice) public returns (uint) {\n        uint _waffleID = block.number;\n        \n        address[] memory emptyBuyer = new address[](_slotCount);\n        \n        Waffle memory waffle = Waffle(_waffleID,msg.sender,emptyBuyer,_slotCount,_slotPrice,0,true);\n        \n        waffles[_waffleID] = waffle;\n\n        // https://coursetro.com/posts/code/102/Solidity-Mappings-&-Structs-Tutorial\n        // waffles[_waffleID].seller = msg.sender;\n        // waffles[_waffleID].slotCount = _slotCount;\n        // waffles[_waffleID].slotPrice = _slotPrice;\n        // waffles[_waffleID].isValue = true;\n        \n        // Waffle storage waffle = waffles[_waffleID];\n\n        return _waffleID;\n    }\n\n    function addBuyer(uint _waffleID) public payable returns (bool success) {\n        Waffle storage waffle = waffles[_waffleID];\n\n        require(waffle.isValue);\n        require(waffle.buyers.length < waffle.slotCount);\n        require(msg.value >= waffle.slotPrice);\n\n        waffle.buyers.push(msg.sender);\n        uint buyerCount = waffle.buyers.length;\n        buyerCount += 1;\n\n        waffle.balance += msg.value;\n\n        if (buyerCount == waffle.slotCount) {\n            startWaffle(_waffleID);\n        }\n\n        return true;\n    }\n\n    function removeWaffle(uint _waffleID) public returns (bool success) {\n        Waffle storage waffle = waffles[_waffleID];\n\n        require(waffle.isValue);\n        require(msg.sender == waffle.seller);\n\n        waffles[_waffleID].isValue = false;\n        return true;\n    }\n\n    function startWaffle(uint _waffleID) public {\n        Waffle storage waffle = waffles[_waffleID];\n        \n        uint blockNumber = block.number;\n        bytes32 hash = keccak256(blockNumber);\n        uint intHash = uint(hash);\n        uint randInt = intHash % waffles[_waffleID].slotCount; // This isn't secure\n        address winner = waffles[_waffleID].buyers[randInt];\n        moveFunds(_waffleID);\n        // notify(winner, waffle.seller);\n    }\n\n    function moveFunds(uint _waffleID) private {\n        Waffle storage waffle = waffles[_waffleID];\n        waffle.seller.transfer(waffle.balance);\n        removeWaffle(_waffleID);\n    }\n\n}",
  "sourcePath": "/Users/miguelayala/Desktop/Work/spr18/cs359b/cs359b-biffel-1/biffel/contracts/Biffel.sol",
  "compiler": {
    "name": "solc",
    "version": "0.4.23+commit.124ca40d.Emscripten.clang"
  },
  "schemaVersion": "2.0.0",
  "updatedAt": "2018-05-14T00:17:14.861Z"
}