{
  "contractName": "BiffelContract",
  "abi": [
    {
      "inputs": [],
      "payable": false,
      "stateMutability": "nonpayable",
      "type": "constructor"
    },
    {
      "anonymous": false,
      "inputs": [
        {
          "indexed": false,
          "name": "biffelTitle",
          "type": "string"
        },
        {
          "indexed": false,
          "name": "biffelID",
          "type": "uint256"
        },
        {
          "indexed": false,
          "name": "seller",
          "type": "address"
        },
        {
          "indexed": false,
          "name": "slotCount",
          "type": "uint32"
        },
        {
          "indexed": false,
          "name": "slotPrice",
          "type": "uint256"
        },
        {
          "indexed": false,
          "name": "bounty",
          "type": "uint256"
        }
      ],
      "name": "biffelCreated",
      "type": "event"
    },
    {
      "anonymous": false,
      "inputs": [
        {
          "indexed": false,
          "name": "biffelID",
          "type": "uint256"
        },
        {
          "indexed": false,
          "name": "seller",
          "type": "address"
        },
        {
          "indexed": false,
          "name": "buyers",
          "type": "address[]"
        },
        {
          "indexed": false,
          "name": "slotPrice",
          "type": "uint256"
        },
        {
          "indexed": false,
          "name": "slotCount",
          "type": "uint32"
        },
        {
          "indexed": false,
          "name": "bounty",
          "type": "uint256"
        }
      ],
      "name": "slotBought",
      "type": "event"
    },
    {
      "anonymous": false,
      "inputs": [
        {
          "indexed": false,
          "name": "biffelID",
          "type": "uint256"
        },
        {
          "indexed": false,
          "name": "buyers",
          "type": "address[]"
        }
      ],
      "name": "biffelFull",
      "type": "event"
    },
    {
      "anonymous": false,
      "inputs": [
        {
          "indexed": false,
          "name": "biffelID",
          "type": "uint256"
        },
        {
          "indexed": false,
          "name": "winner",
          "type": "address"
        }
      ],
      "name": "biffelDecided",
      "type": "event"
    },
    {
      "constant": false,
      "inputs": [
        {
          "name": "title",
          "type": "string"
        },
        {
          "name": "_slotCount",
          "type": "uint32"
        },
        {
          "name": "_slotPrice",
          "type": "uint256"
        },
        {
          "name": "_bounty",
          "type": "uint256"
        }
      ],
      "name": "createBiffel",
      "outputs": [
        {
          "name": "",
          "type": "uint256"
        }
      ],
      "payable": false,
      "stateMutability": "nonpayable",
      "type": "function"
    },
    {
      "constant": false,
      "inputs": [
        {
          "name": "_biffelID",
          "type": "uint256"
        }
      ],
      "name": "buySlot",
      "outputs": [
        {
          "name": "success",
          "type": "bool"
        }
      ],
      "payable": true,
      "stateMutability": "payable",
      "type": "function"
    },
    {
      "constant": false,
      "inputs": [
        {
          "name": "_biffelID",
          "type": "uint256"
        }
      ],
      "name": "startBiffel",
      "outputs": [
        {
          "name": "winner",
          "type": "address"
        }
      ],
      "payable": true,
      "stateMutability": "payable",
      "type": "function"
    },
    {
      "constant": false,
      "inputs": [
        {
          "name": "_biffelID",
          "type": "uint256"
        }
      ],
      "name": "confirmShipment",
      "outputs": [
        {
          "name": "success",
          "type": "bool"
        }
      ],
      "payable": false,
      "stateMutability": "nonpayable",
      "type": "function"
    },
    {
      "constant": false,
      "inputs": [
        {
          "name": "_biffelID",
          "type": "uint256"
        }
      ],
      "name": "withdrawSlot",
      "outputs": [
        {
          "name": "success",
          "type": "bool"
        }
      ],
      "payable": false,
      "stateMutability": "nonpayable",
      "type": "function"
    },
    {
      "constant": true,
      "inputs": [],
      "name": "getBiffelCount",
      "outputs": [
        {
          "name": "",
          "type": "uint256"
        }
      ],
      "payable": false,
      "stateMutability": "view",
      "type": "function"
    },
    {
      "constant": true,
      "inputs": [
        {
          "name": "_biffelID",
          "type": "uint256"
        }
      ],
      "name": "getBiffelString",
      "outputs": [
        {
          "name": "title",
          "type": "string"
        }
      ],
      "payable": false,
      "stateMutability": "view",
      "type": "function"
    },
    {
      "constant": true,
      "inputs": [
        {
          "name": "_biffelID",
          "type": "uint256"
        }
      ],
      "name": "getBiffelSeller",
      "outputs": [
        {
          "name": "seller",
          "type": "address"
        }
      ],
      "payable": false,
      "stateMutability": "view",
      "type": "function"
    },
    {
      "constant": true,
      "inputs": [
        {
          "name": "_biffelID",
          "type": "uint256"
        }
      ],
      "name": "getBiffelBuyers",
      "outputs": [
        {
          "name": "buyers",
          "type": "address[]"
        }
      ],
      "payable": false,
      "stateMutability": "view",
      "type": "function"
    },
    {
      "constant": true,
      "inputs": [
        {
          "name": "_biffelID",
          "type": "uint256"
        }
      ],
      "name": "getBiffelBuyerLength",
      "outputs": [
        {
          "name": "buyerLength",
          "type": "uint256"
        }
      ],
      "payable": false,
      "stateMutability": "view",
      "type": "function"
    },
    {
      "constant": true,
      "inputs": [
        {
          "name": "_biffelID",
          "type": "uint256"
        }
      ],
      "name": "getBiffelSlotCount",
      "outputs": [
        {
          "name": "slotCount",
          "type": "uint32"
        }
      ],
      "payable": false,
      "stateMutability": "view",
      "type": "function"
    },
    {
      "constant": true,
      "inputs": [
        {
          "name": "_biffelID",
          "type": "uint256"
        }
      ],
      "name": "getBiffelSlotPrice",
      "outputs": [
        {
          "name": "slotPrice",
          "type": "uint256"
        }
      ],
      "payable": false,
      "stateMutability": "view",
      "type": "function"
    },
    {
      "constant": true,
      "inputs": [
        {
          "name": "_biffelID",
          "type": "uint256"
        }
      ],
      "name": "getBiffelBalance",
      "outputs": [
        {
          "name": "balance",
          "type": "uint256"
        }
      ],
      "payable": false,
      "stateMutability": "view",
      "type": "function"
    },
    {
      "constant": true,
      "inputs": [
        {
          "name": "_biffelID",
          "type": "uint256"
        }
      ],
      "name": "getBiffelBounty",
      "outputs": [
        {
          "name": "bounty",
          "type": "uint256"
        }
      ],
      "payable": false,
      "stateMutability": "view",
      "type": "function"
    },
    {
      "constant": true,
      "inputs": [
        {
          "name": "_biffelID",
          "type": "uint256"
        }
      ],
      "name": "getBiffelStartBlock",
      "outputs": [
        {
          "name": "startBlock",
          "type": "uint256"
        }
      ],
      "payable": false,
      "stateMutability": "view",
      "type": "function"
    },
    {
      "constant": true,
      "inputs": [
        {
          "name": "_biffelID",
          "type": "uint256"
        }
      ],
      "name": "getBiffelBountyPaid",
      "outputs": [
        {
          "name": "bountyPaid",
          "type": "bool"
        }
      ],
      "payable": false,
      "stateMutability": "view",
      "type": "function"
    },
    {
      "constant": true,
      "inputs": [
        {
          "name": "_biffelID",
          "type": "uint256"
        }
      ],
      "name": "getBiffelIsActive",
      "outputs": [
        {
          "name": "isActive",
          "type": "bool"
        }
      ],
      "payable": false,
      "stateMutability": "view",
      "type": "function"
    },
    {
      "constant": false,
      "inputs": [
        {
          "name": "person",
          "type": "address"
        },
        {
          "name": "upvote",
          "type": "bool"
        }
      ],
      "name": "rate",
      "outputs": [],
      "payable": false,
      "stateMutability": "nonpayable",
      "type": "function"
    },
    {
      "constant": true,
      "inputs": [
        {
          "name": "person",
          "type": "address"
        }
      ],
      "name": "getRating",
      "outputs": [
        {
          "name": "upvotes",
          "type": "uint256"
        },
        {
          "name": "downvotes",
          "type": "uint256"
        }
      ],
      "payable": false,
      "stateMutability": "view",
      "type": "function"
    }
  ],
  "bytecode": "0x608060405234801561001057600080fd5b50336000806101000a81548173ffffffffffffffffffffffffffffffffffffffff021916908373ffffffffffffffffffffffffffffffffffffffff1602179055506000600381905550611c3d806100686000396000f300608060405260043610610107576000357c0100000000000000000000000000000000000000000000000000000000900463ffffffff16806306ffc25f1461010c578063082db5ee1461014d57806310cbbec61461019257806312102797146101f25780631e64cd65146102415780634a8237ab146102e7578063548b630814610388578063605c70951461040a5780636500186b14610477578063733849c2146104b857806376fb7543146104f957806380fc9c0e1461053e57806384efc1331461059c5780638f273cb9146105dd578063ab2874cb1461061e578063c0b6862a14610656578063c30da3a31461069b578063c6dc44e9146106c6578063e0cb8e5f14610713575b600080fd5b34801561011857600080fd5b5061013760048036038101908080359060200190929190505050610758565b6040518082815260200191505060405180910390f35b34801561015957600080fd5b5061017860048036038101908080359060200190929190505050610778565b604051808215151515815260200191505060405180910390f35b6101b0600480360381019080803590602001909291905050506107a5565b604051808273ffffffffffffffffffffffffffffffffffffffff1673ffffffffffffffffffffffffffffffffffffffff16815260200191505060405180910390f35b3480156101fe57600080fd5b5061023f600480360381019080803573ffffffffffffffffffffffffffffffffffffffff169060200190929190803515159060200190929190505050610a59565b005b34801561024d57600080fd5b5061026c60048036038101908080359060200190929190505050610b0b565b6040518080602001828103825283818151815260200191508051906020019080838360005b838110156102ac578082015181840152602081019050610291565b50505050905090810190601f1680156102d95780820380516001836020036101000a031916815260200191505b509250505060405180910390f35b3480156102f357600080fd5b50610372600480360381019080803590602001908201803590602001908080601f0160208091040260200160405190810160405280939291908181526020018383808284378201915050505050509192919290803563ffffffff1690602001909291908035906020019092919080359060200190929190505050610bc3565b6040518082815260200191505060405180910390f35b34801561039457600080fd5b506103b360048036038101908080359060200190929190505050610f29565b6040518080602001828103825283818151815260200191508051906020019060200280838360005b838110156103f65780820151818401526020810190506103db565b505050509050019250505060405180910390f35b34801561041657600080fd5b5061043560048036038101908080359060200190929190505050610fcd565b604051808273ffffffffffffffffffffffffffffffffffffffff1673ffffffffffffffffffffffffffffffffffffffff16815260200191505060405180910390f35b34801561048357600080fd5b506104a26004803603810190808035906020019092919050505061100d565b6040518082815260200191505060405180910390f35b3480156104c457600080fd5b506104e36004803603810190808035906020019092919050505061102d565b6040518082815260200191505060405180910390f35b34801561050557600080fd5b506105246004803603810190808035906020019092919050505061104d565b604051808215151515815260200191505060405180910390f35b34801561054a57600080fd5b5061057f600480360381019080803573ffffffffffffffffffffffffffffffffffffffff16906020019092919050505061107a565b604051808381526020018281526020019250505060405180910390f35b3480156105a857600080fd5b506105c76004803603810190808035906020019092919050505061110c565b6040518082815260200191505060405180910390f35b3480156105e957600080fd5b506106086004803603810190808035906020019092919050505061112c565b6040518082815260200191505060405180910390f35b61063c6004803603810190808035906020019092919050505061114f565b604051808215151515815260200191505060405180910390f35b34801561066257600080fd5b5061068160048036038101908080359060200190929190505050611606565b604051808215151515815260200191505060405180910390f35b3480156106a757600080fd5b506106b061188a565b6040518082815260200191505060405180910390f35b3480156106d257600080fd5b506106f160048036038101908080359060200190929190505050611894565b604051808263ffffffff1663ffffffff16815260200191505060405180910390f35b34801561071f57600080fd5b5061073e600480360381019080803590602001909291905050506118c4565b604051808215151515815260200191505060405180910390f35b600060016000838152602001908152602001600020600601549050919050565b60006001600083815260200190815260200160002060090160159054906101000a900460ff169050919050565b6000806000806000804394506001806000898152602001908152602001600020600801540185101515156107d857600080fd5b600115156001600089815260200190815260200160002060090160159054906101000a900460ff16151514151561080e57600080fd5b844060405180826000191660001916815260200191505060405180910390209350836001900492506001600088815260200190815260200160002060040160009054906101000a900463ffffffff1663ffffffff168381151561086d57fe5b069150600160008881526020019081526020016000206003018281548110151561089357fe5b9060005260206000200160009054906101000a900473ffffffffffffffffffffffffffffffffffffffff16955060006001600089815260200190815260200160002060090160156101000a81548160ff021916908315150217905550600015156001600089815260200190815260200160002060090160149054906101000a900460ff16151514151561092557600080fd5b6001600088815260200190815260200160002060040160009054906101000a900463ffffffff1663ffffffff1660016000898152602001908152602001600020600701540290503373ffffffffffffffffffffffffffffffffffffffff166108fc829081150290604051600060405180830381858888f193505050501580156109b2573d6000803e3d6000fd5b50600180600089815260200190815260200160002060090160146101000a81548160ff0219169083151502179055507f0f4817d29d6f74e68387d7318be018d61a0c984f9c8c5effdb4bdb11896d6fe58787604051808381526020018273ffffffffffffffffffffffffffffffffffffffff1673ffffffffffffffffffffffffffffffffffffffff1681526020019250505060405180910390a18595505050505050919050565b8015610ab5576001600260008473ffffffffffffffffffffffffffffffffffffffff1673ffffffffffffffffffffffffffffffffffffffff16815260200190815260200160002060000160008282540192505081905550610b07565b6001600260008473ffffffffffffffffffffffffffffffffffffffff1673ffffffffffffffffffffffffffffffffffffffff168152602001908152602001600020600101600082825401925050819055505b5050565b6060600160008381526020019081526020016000206000018054600181600116156101000203166002900480601f016020809104026020016040519081016040528092919081815260200182805460018160011615610100020316600290048015610bb75780601f10610b8c57610100808354040283529160200191610bb7565b820191906000526020600020905b815481529060010190602001808311610b9a57829003601f168201915b50505050509050919050565b600080610bce611a07565b60035491506001600360008282540192505081905550610180604051908101604052808881526020018381526020013373ffffffffffffffffffffffffffffffffffffffff1681526020016000604051908082528060200260200182016040528015610c495781602001602082028038833980820191505090505b5081526020018763ffffffff1681526020018681526020016000815260200185815260200160008152602001600073ffffffffffffffffffffffffffffffffffffffff16815260200160001515815260200160011515815250905080600160008481526020019081526020016000206000820151816000019080519060200190610cd4929190611a9f565b506020820151816001015560408201518160020160006101000a81548173ffffffffffffffffffffffffffffffffffffffff021916908373ffffffffffffffffffffffffffffffffffffffff1602179055506060820151816003019080519060200190610d42929190611b1f565b5060808201518160040160006101000a81548163ffffffff021916908363ffffffff16021790555060a0820151816005015560c0820151816006015560e0820151816007015561010082015181600801556101208201518160090160006101000a81548173ffffffffffffffffffffffffffffffffffffffff021916908373ffffffffffffffffffffffffffffffffffffffff1602179055506101408201518160090160146101000a81548160ff0219169083151502179055506101608201518160090160156101000a81548160ff0219169083151502179055509050507fffbd192a23fc353a2fa329c7ae7b06611b3219c351b1732ba4e9c20e0699affe87833389898960405180806020018781526020018673ffffffffffffffffffffffffffffffffffffffff1673ffffffffffffffffffffffffffffffffffffffff1681526020018563ffffffff1663ffffffff168152602001848152602001838152602001828103825288818151815260200191508051906020019080838360005b83811015610edd578082015181840152602081019050610ec2565b50505050905090810190601f168015610f0a5780820380516001836020036101000a031916815260200191505b5097505050505050505060405180910390a18192505050949350505050565b606060016000838152602001908152602001600020600301805480602002602001604051908101604052809291908181526020018280548015610fc157602002820191906000526020600020905b8160009054906101000a900473ffffffffffffffffffffffffffffffffffffffff1673ffffffffffffffffffffffffffffffffffffffff1681526020019060010190808311610f77575b50505050509050919050565b60006001600083815260200190815260200160002060020160009054906101000a900473ffffffffffffffffffffffffffffffffffffffff169050919050565b600060016000838152602001908152602001600020600701549050919050565b600060016000838152602001908152602001600020600501549050919050565b60006001600083815260200190815260200160002060090160149054906101000a900460ff169050919050565b600080600260008473ffffffffffffffffffffffffffffffffffffffff1673ffffffffffffffffffffffffffffffffffffffff16815260200190815260200160002060000154600260008573ffffffffffffffffffffffffffffffffffffffff1673ffffffffffffffffffffffffffffffffffffffff1681526020019081526020016000206001015491509150915091565b600060016000838152602001908152602001600020600801549050919050565b600060016000838152602001908152602001600020600301805490509050919050565b6000806001600084815260200190815260200160002060020160009054906101000a900473ffffffffffffffffffffffffffffffffffffffff1673ffffffffffffffffffffffffffffffffffffffff163373ffffffffffffffffffffffffffffffffffffffff16141515156111c357600080fd5b6001600084815260200190815260200160002060090160159054906101000a900460ff1615156111f257600080fd5b6001600084815260200190815260200160002060040160009054906101000a900463ffffffff1663ffffffff16600160008581526020019081526020016000206003018054905010151561124557600080fd5b6001600084815260200190815260200160002060070154600160008581526020019081526020016000206005015401341015151561128257600080fd5b600160008481526020019081526020016000206003013390806001815401808255809150509060018203906000526020600020016000909192909190916101000a81548173ffffffffffffffffffffffffffffffffffffffff021916908373ffffffffffffffffffffffffffffffffffffffff16021790555050600160008481526020019081526020016000206003018054905090503460016000858152602001908152602001600020600601600082825401925050819055507ffbb33dea451c86c48f2cc4e9b8b4850485927e27dc10f83bc6c4232c17cb734e836001600086815260200190815260200160002060020160009054906101000a900473ffffffffffffffffffffffffffffffffffffffff166001600087815260200190815260200160002060030160016000888152602001908152602001600020600501546001600089815260200190815260200160002060040160009054906101000a900463ffffffff16600160008a815260200190815260200160002060070154604051808781526020018673ffffffffffffffffffffffffffffffffffffffff1673ffffffffffffffffffffffffffffffffffffffff168152602001806020018581526020018463ffffffff1663ffffffff16815260200183815260200182810382528681815481526020019150805480156114d157602002820191906000526020600020905b8160009054906101000a900473ffffffffffffffffffffffffffffffffffffffff1673ffffffffffffffffffffffffffffffffffffffff1681526020019060010190808311611487575b505097505050505050505060405180910390a16001600084815260200190815260200160002060040160009054906101000a900463ffffffff1663ffffffff168114156115fc574360016000858152602001908152602001600020600801819055507f5565462e8db5d093decab2c1ca2e377dc1a64bee30552d594b159b84e1f39d108360016000868152602001908152602001600020600301604051808381526020018060200182810382528381815481526020019150805480156115ec57602002820191906000526020600020905b8160009054906101000a900473ffffffffffffffffffffffffffffffffffffffff1673ffffffffffffffffffffffffffffffffffffffff16815260200190600101908083116115a2575b5050935050505060405180910390a15b6001915050919050565b60008060006001600085815260200190815260200160002060090160159054906101000a900460ff16151561163a57600080fd5b60016000858152602001908152602001600020600301805490509150600090505b8181101561187e573373ffffffffffffffffffffffffffffffffffffffff16600160008681526020019081526020016000206003018281548110151561169d57fe5b9060005260206000200160009054906101000a900473ffffffffffffffffffffffffffffffffffffffff1673ffffffffffffffffffffffffffffffffffffffff16141561187157600160008581526020019081526020016000206003016001830381548110151561170a57fe5b9060005260206000200160009054906101000a900473ffffffffffffffffffffffffffffffffffffffff16600160008681526020019081526020016000206003018281548110151561175857fe5b9060005260206000200160006101000a81548173ffffffffffffffffffffffffffffffffffffffff021916908373ffffffffffffffffffffffffffffffffffffffff16021790555060016000858152602001908152602001600020600301600183038154811015156117c657fe5b9060005260206000200160006101000a81549073ffffffffffffffffffffffffffffffffffffffff02191690553373ffffffffffffffffffffffffffffffffffffffff166108fc60016000878152602001908152602001600020600701546001600088815260200190815260200160002060050154019081150290604051600060405180830381858888f19350505050158015611867573d6000803e3d6000fd5b5060019250611883565b808060010191505061165b565b600092505b5050919050565b6000600354905090565b60006001600083815260200190815260200160002060040160009054906101000a900463ffffffff169050919050565b60008015156001600084815260200190815260200160002060090160159054906101000a900460ff1615151415156118fb57600080fd5b6001600083815260200190815260200160002060090160009054906101000a900473ffffffffffffffffffffffffffffffffffffffff1673ffffffffffffffffffffffffffffffffffffffff163373ffffffffffffffffffffffffffffffffffffffff1614151561196b57600080fd5b6001600083815260200190815260200160002060020160009054906101000a900473ffffffffffffffffffffffffffffffffffffffff1673ffffffffffffffffffffffffffffffffffffffff166108fc60016000858152602001908152602001600020600601549081150290604051600060405180830381858888f193505050501580156119fd573d6000803e3d6000fd5b5060019050919050565b610180604051908101604052806060815260200160008152602001600073ffffffffffffffffffffffffffffffffffffffff16815260200160608152602001600063ffffffff16815260200160008152602001600081526020016000815260200160008152602001600073ffffffffffffffffffffffffffffffffffffffff1681526020016000151581526020016000151581525090565b828054600181600116156101000203166002900490600052602060002090601f016020900481019282601f10611ae057805160ff1916838001178555611b0e565b82800160010185558215611b0e579182015b82811115611b0d578251825591602001919060010190611af2565b5b509050611b1b9190611ba9565b5090565b828054828255906000526020600020908101928215611b98579160200282015b82811115611b975782518260006101000a81548173ffffffffffffffffffffffffffffffffffffffff021916908373ffffffffffffffffffffffffffffffffffffffff16021790555091602001919060010190611b3f565b5b509050611ba59190611bce565b5090565b611bcb91905b80821115611bc7576000816000905550600101611baf565b5090565b90565b611c0e91905b80821115611c0a57600081816101000a81549073ffffffffffffffffffffffffffffffffffffffff021916905550600101611bd4565b5090565b905600a165627a7a72305820ca2c1c4a28a70bd9e445657dafc6b9a676ad77f944d8e46ea49db9e32e1e45d90029",
  "source": "pragma solidity ^0.4.21;\n\ncontract BiffelContract {\n\n    address contractCreator;\n    \n    struct Biffel {\n        string biffelTitle;\n        uint biffelID;\n        address seller;\n        address[] buyers;\n        uint32 slotCount;\n        uint256 slotPrice;\n        uint256 balance;\n        uint256 bounty;\n        uint startBlock;\n        address winner;\n        \n        bool bountyPaid;\n        \n        bool isActive;\n    }\n\n    struct Votes {\n        uint upvotes;\n        uint downvotes;\n    }\n\n    event biffelCreated(\n        string biffelTitle,\n        uint biffelID,\n        address seller,\n        uint32 slotCount,\n        uint256 slotPrice,\n        uint256 bounty\n    );\n    \n    event slotBought(\n        uint biffelID,\n        address seller,\n        address[] buyers,\n        uint256 slotPrice,\n        uint32 slotCount,\n        uint256 bounty\n    );\n    \n    event biffelFull(\n        uint biffelID,\n        address[] buyers\n    );\n    \n    event biffelDecided(\n        uint biffelID,\n        address winner\n    );\n\n    mapping (uint => Biffel) biffels;\n    mapping (address => Votes) ratings;\n    uint256 biffelCount;\n    \n    //assuming average finality is around 6 or 7 this number should be 10. height of 1 is better for testing\n    uint constant clearingHeight = 1;\n\n    constructor() public {\n        contractCreator = msg.sender;\n        biffelCount = 0;\n    }\n\n    function createBiffel(string title, uint32 _slotCount, uint256 _slotPrice, uint256 _bounty) public returns (uint) {\n        uint _biffelID = biffelCount;\n\n        biffelCount += 1;\n        \n        Biffel memory biffel = Biffel(title, _biffelID,msg.sender,new address[](0),_slotCount,_slotPrice,0 wei,_bounty,0,0,false, true);\n        \n        biffels[_biffelID] = biffel;\n\n        emit biffelCreated(title, _biffelID,msg.sender,_slotCount,_slotPrice,_bounty);\n\n        return _biffelID;\n    }\n\n    function buySlot(uint _biffelID) public payable returns (bool success) {\n        \n        require(msg.sender != biffels[_biffelID].seller);\n        require(biffels[_biffelID].isActive);\n        require(biffels[_biffelID].buyers.length < biffels[_biffelID].slotCount);\n        require(msg.value >= biffels[_biffelID].slotPrice + biffels[_biffelID].bounty);\n\n        biffels[_biffelID].buyers.push(msg.sender);\n        uint buyerCount = biffels[_biffelID].buyers.length;\n\n        biffels[_biffelID].balance += msg.value;\n        \n        emit slotBought(_biffelID,biffels[_biffelID].seller,biffels[_biffelID].buyers,biffels[_biffelID].slotPrice,biffels[_biffelID].slotCount,biffels[_biffelID].bounty);\n\n        if (buyerCount == biffels[_biffelID].slotCount) {\n            biffels[_biffelID].startBlock = block.number;\n            emit biffelFull(_biffelID,biffels[_biffelID].buyers);\n        }\n\n        return true;\n    }\n\n    function startBiffel(uint _biffelID) public payable returns (address winner){\n        uint blockNumber = block.number;\n        \n        //check if we have reached average finality\n        require(blockNumber >= biffels[_biffelID].startBlock + clearingHeight);\n        \n        require(biffels[_biffelID].isActive == true);\n        \n        \n        bytes32 hash = keccak256(block.blockhash(blockNumber));\n        uint intHash = uint(hash);\n        uint randInt = intHash % biffels[_biffelID].slotCount;\n        winner = biffels[_biffelID].buyers[randInt];\n        biffels[_biffelID].isActive = false;\n        \n        require(biffels[_biffelID].bountyPaid == false);\n        uint256 totalBounty = biffels[_biffelID].bounty * biffels[_biffelID].slotCount;\n        msg.sender.transfer(totalBounty);\n        biffels[_biffelID].bountyPaid = true;\n        \n        emit biffelDecided(_biffelID,winner);\n        \n        return winner;\n\n\n    }\n    \n    function confirmShipment(uint _biffelID) public returns (bool success) {\n        require(biffels[_biffelID].isActive == false);\n        require(msg.sender == biffels[_biffelID].winner);\n        biffels[_biffelID].seller.transfer(biffels[_biffelID].balance);\n        return true;\n    }\n    \n    function withdrawSlot(uint _biffelID) public returns (bool success) {\n        \n        require(biffels[_biffelID].isActive);\n        uint buyerLength = biffels[_biffelID].buyers.length;\n        for(uint i = 0; i < buyerLength;i++){\n           if(biffels[_biffelID].buyers[i] == msg.sender){\n               \n               biffels[_biffelID].buyers[i] = biffels[_biffelID].buyers[buyerLength - 1];\n               \n               delete biffels[_biffelID].buyers[buyerLength - 1];\n               msg.sender.transfer(biffels[_biffelID].slotPrice + biffels[_biffelID].bounty);\n               return true;\n           }\n        }\n        \n        return false;\n    }\n    \n    //return a count of the biffels\n    function getBiffelCount() public view returns (uint256){\n        return biffelCount;\n    }\n    \n    //public getters for Biffel struct variables\n    //requires biffelIDs\n    \n    function getBiffelString(uint256 _biffelID) public view returns (string title){\n        return biffels[_biffelID].biffelTitle;\n    }\n    \n    function getBiffelSeller(uint256 _biffelID) public view returns (address seller){\n        return biffels[_biffelID].seller;\n    }\n    \n    function getBiffelBuyers(uint256 _biffelID) public view returns (address[] buyers){\n        return biffels[_biffelID].buyers;\n    }\n    \n    function getBiffelBuyerLength(uint256 _biffelID) public view returns (uint buyerLength){\n        return biffels[_biffelID].buyers.length;\n    }\n    \n    function getBiffelSlotCount(uint256 _biffelID) public view returns (uint32 slotCount){\n        return biffels[_biffelID].slotCount;\n    }\n    \n    function getBiffelSlotPrice(uint256 _biffelID) public view returns (uint256 slotPrice){\n        return biffels[_biffelID].slotPrice;\n    }\n    \n    function getBiffelBalance(uint256 _biffelID) public view returns (uint256 balance){\n        return biffels[_biffelID].balance;\n    }\n    \n    function getBiffelBounty(uint256 _biffelID) public view returns (uint256 bounty){\n        return biffels[_biffelID].bounty;\n    }\n    \n    function getBiffelStartBlock(uint256 _biffelID) public view returns (uint startBlock){\n        return biffels[_biffelID].startBlock;\n    }\n    \n    function getBiffelBountyPaid(uint256 _biffelID) public view returns (bool bountyPaid){\n        return biffels[_biffelID].bountyPaid;\n    }\n    \n    function getBiffelIsActive(uint256 _biffelID) public view returns (bool isActive){\n        return biffels[_biffelID].isActive;\n    }\n    \n    // ratings\n    function rate(address person, bool upvote) {\n        if (upvote) {\n            ratings[person].upvotes += 1;\n        } else {\n            ratings[person].downvotes += 1;\n        }\n    }\n\n    function getRating(address person) public view returns (uint upvotes, uint downvotes){\n        return (ratings[person].upvotes, ratings[person].downvotes);\n    }\n\n}",
  "sourcePath": "/Users/miguelayala/Desktop/Work/spr18/cs359b/cs359b-biffel-1/biffel/contracts/Biffel.sol",
  "compiler": {
    "name": "solc",
    "version": "0.4.23+commit.124ca40d.Emscripten.clang"
  },
  "schemaVersion": "2.0.0",
  "updatedAt": "2018-06-04T06:18:48.051Z"
}